{"abi":[{"type":"constructor","inputs":[{"name":"_owner","type":"address","internalType":"address"}],"stateMutability":"nonpayable"},{"type":"function","name":"campaignCount","inputs":[],"outputs":[{"name":"","type":"uint256","internalType":"uint256"}],"stateMutability":"view"},{"type":"function","name":"campaignDonors","inputs":[{"name":"","type":"uint256","internalType":"uint256"},{"name":"","type":"uint256","internalType":"uint256"}],"outputs":[{"name":"","type":"address","internalType":"address"}],"stateMutability":"view"},{"type":"function","name":"campaigns","inputs":[{"name":"","type":"uint256","internalType":"uint256"}],"outputs":[{"name":"creator","type":"address","internalType":"address"},{"name":"title","type":"string","internalType":"string"},{"name":"description","type":"string","internalType":"string"},{"name":"goal","type":"uint256","internalType":"uint256"},{"name":"deadline","type":"uint256","internalType":"uint256"},{"name":"fundsRaised","type":"uint256","internalType":"uint256"},{"name":"withdrawn","type":"bool","internalType":"bool"},{"name":"categoryIndex","type":"uint256","internalType":"uint256"}],"stateMutability":"view"},{"type":"function","name":"categories","inputs":[{"name":"","type":"uint256","internalType":"uint256"}],"outputs":[{"name":"","type":"string","internalType":"string"}],"stateMutability":"view"},{"type":"function","name":"convertDaysToSeconds","inputs":[{"name":"_days","type":"uint256","internalType":"uint256"}],"outputs":[{"name":"","type":"uint256","internalType":"uint256"}],"stateMutability":"pure"},{"type":"function","name":"createCampaign","inputs":[{"name":"_title","type":"string","internalType":"string"},{"name":"_description","type":"string","internalType":"string"},{"name":"_goal","type":"uint256","internalType":"uint256"},{"name":"_duration","type":"uint256","internalType":"uint256"},{"name":"_categoryIndex","type":"uint256","internalType":"uint256"}],"outputs":[],"stateMutability":"nonpayable"},{"type":"function","name":"createCategory","inputs":[{"name":"_category","type":"string","internalType":"string"}],"outputs":[],"stateMutability":"nonpayable"},{"type":"function","name":"donateToCampaign","inputs":[{"name":"_campaignId","type":"uint256","internalType":"uint256"}],"outputs":[],"stateMutability":"payable"},{"type":"function","name":"donations","inputs":[{"name":"","type":"uint256","internalType":"uint256"},{"name":"","type":"address","internalType":"address"}],"outputs":[{"name":"","type":"uint256","internalType":"uint256"}],"stateMutability":"view"},{"type":"function","name":"getAllCampaigns","inputs":[],"outputs":[{"name":"","type":"tuple[]","internalType":"struct WarpFund.Campaign[]","components":[{"name":"creator","type":"address","internalType":"address"},{"name":"title","type":"string","internalType":"string"},{"name":"description","type":"string","internalType":"string"},{"name":"goal","type":"uint256","internalType":"uint256"},{"name":"deadline","type":"uint256","internalType":"uint256"},{"name":"fundsRaised","type":"uint256","internalType":"uint256"},{"name":"withdrawn","type":"bool","internalType":"bool"},{"name":"categoryIndex","type":"uint256","internalType":"uint256"}]}],"stateMutability":"view"},{"type":"function","name":"getCampaign","inputs":[{"name":"_campaignId","type":"uint256","internalType":"uint256"}],"outputs":[{"name":"","type":"tuple","internalType":"struct WarpFund.Campaign","components":[{"name":"creator","type":"address","internalType":"address"},{"name":"title","type":"string","internalType":"string"},{"name":"description","type":"string","internalType":"string"},{"name":"goal","type":"uint256","internalType":"uint256"},{"name":"deadline","type":"uint256","internalType":"uint256"},{"name":"fundsRaised","type":"uint256","internalType":"uint256"},{"name":"withdrawn","type":"bool","internalType":"bool"},{"name":"categoryIndex","type":"uint256","internalType":"uint256"}]}],"stateMutability":"view"},{"type":"function","name":"getCampaignCategory","inputs":[{"name":"_campaignId","type":"uint256","internalType":"uint256"}],"outputs":[{"name":"","type":"string","internalType":"string"}],"stateMutability":"view"},{"type":"function","name":"getDonorContribution","inputs":[{"name":"_campaignId","type":"uint256","internalType":"uint256"},{"name":"_donor","type":"address","internalType":"address"}],"outputs":[{"name":"","type":"uint256","internalType":"uint256"}],"stateMutability":"view"},{"type":"function","name":"getDonors","inputs":[{"name":"_campaignId","type":"uint256","internalType":"uint256"}],"outputs":[{"name":"","type":"address[]","internalType":"address[]"}],"stateMutability":"view"},{"type":"function","name":"owner","inputs":[],"outputs":[{"name":"","type":"address","internalType":"address"}],"stateMutability":"view"},{"type":"function","name":"refund","inputs":[{"name":"_campaignId","type":"uint256","internalType":"uint256"}],"outputs":[],"stateMutability":"nonpayable"},{"type":"function","name":"setCategories","inputs":[{"name":"_categories","type":"string[]","internalType":"string[]"}],"outputs":[],"stateMutability":"nonpayable"},{"type":"function","name":"withdrawFunds","inputs":[{"name":"_campaignId","type":"uint256","internalType":"uint256"}],"outputs":[],"stateMutability":"nonpayable"},{"type":"event","name":"CampaignCreated","inputs":[{"name":"campaignId","type":"uint256","indexed":false,"internalType":"uint256"},{"name":"creator","type":"address","indexed":false,"internalType":"address"},{"name":"goal","type":"uint256","indexed":false,"internalType":"uint256"},{"name":"deadline","type":"uint256","indexed":false,"internalType":"uint256"}],"anonymous":false},{"type":"event","name":"DonationReceived","inputs":[{"name":"campaignId","type":"uint256","indexed":false,"internalType":"uint256"},{"name":"donor","type":"address","indexed":false,"internalType":"address"},{"name":"amount","type":"uint256","indexed":false,"internalType":"uint256"}],"anonymous":false},{"type":"event","name":"FundsWithdrawn","inputs":[{"name":"campaignId","type":"uint256","indexed":false,"internalType":"uint256"},{"name":"creator","type":"address","indexed":false,"internalType":"address"},{"name":"amount","type":"uint256","indexed":false,"internalType":"uint256"}],"anonymous":false},{"type":"event","name":"RefundIssued","inputs":[{"name":"campaignId","type":"uint256","indexed":false,"internalType":"uint256"},{"name":"donor","type":"address","indexed":false,"internalType":"address"},{"name":"amount","type":"uint256","indexed":false,"internalType":"uint256"}],"anonymous":false}],"bytecode":{"object":"0x608060405234801561001057600080fd5b50604051611b9d380380611b9d83398101604081905261002f916100ae565b6001600160a01b0381166100895760405162461bcd60e51b815260206004820152601560248201527f496e76616c6964206f776e657220616464726573730000000000000000000000604482015260640160405180910390fd5b600080546001600160a01b0319166001600160a01b03929092169190911790556100de565b6000602082840312156100c057600080fd5b81516001600160a01b03811681146100d757600080fd5b9392505050565b611ab0806100ed6000396000f3fe6080604052600436106101095760003560e01c80638da5cb5b11610095578063c6cdbe5e11610064578063c6cdbe5e14610305578063dc29868214610325578063e721da1314610345578063ee1554a314610365578063f25e1e931461039d57600080fd5b80638da5cb5b14610260578063a1be44e014610298578063b5c89219146102b8578063b69f5b13146102d857600080fd5b8063382f05b7116100dc578063382f05b7146101ba57806342a4fda8146101da5780635598f8cc146101ed5780637274e30d1461021a57806386cdf6041461023e57600080fd5b8063141961bc1461010e578063155dd5ee1461014b578063278ecde11461016d578063295165111461018d575b600080fd5b34801561011a57600080fd5b5061012e61012936600461140f565b6103bd565b60405161014298979695949392919061146e565b60405180910390f35b34801561015757600080fd5b5061016b61016636600461140f565b61051d565b005b34801561017957600080fd5b5061016b61018836600461140f565b61070b565b34801561019957600080fd5b506101ad6101a836600461140f565b610896565b60405161014291906114d5565b3480156101c657600080fd5b5061016b6101d53660046115d9565b610902565b61016b6101e836600461140f565b6109b5565b3480156101f957600080fd5b5061020d61020836600461140f565b610b30565b604051610142919061171f565b34801561022657600080fd5b5061023060015481565b604051908152602001610142565b34801561024a57600080fd5b50610253610cc7565b6040516101429190611739565b34801561026c57600080fd5b50600054610280906001600160a01b031681565b6040516001600160a01b039091168152602001610142565b3480156102a457600080fd5b506102306102b336600461179b565b610ef0565b3480156102c457600080fd5b5061016b6102d33660046117d7565b610f1a565b3480156102e457600080fd5b506102f86102f336600461140f565b611128565b6040516101429190611856565b34801561031157600080fd5b506102f861032036600461140f565b611229565b34801561033157600080fd5b5061016b610340366004611869565b6112d5565b34801561035157600080fd5b5061023061036036600461140f565b611364565b34801561037157600080fd5b5061023061038036600461179b565b600460209081526000928352604080842090915290825290205481565b3480156103a957600080fd5b506102806103b83660046118a6565b611387565b600360205260009081526040902080546001820180546001600160a01b0390921692916103e9906118c8565b80601f0160208091040260200160405190810160405280929190818152602001828054610415906118c8565b80156104625780601f1061043757610100808354040283529160200191610462565b820191906000526020600020905b81548152906001019060200180831161044557829003601f168201915b505050505090806002018054610477906118c8565b80601f01602080910402602001604051908101604052809291908181526020018280546104a3906118c8565b80156104f05780601f106104c5576101008083540402835291602001916104f0565b820191906000526020600020905b8154815290600101906020018083116104d357829003601f168201915b505050506003830154600484015460058501546006860154600790960154949592949193509160ff169088565b600081815260036020526040902080546001600160a01b031633146105945760405162461bcd60e51b815260206004820152602260248201527f4f6e6c792063616d706169676e2063726561746f722063616e20776974686472604482015261617760f01b60648201526084015b60405180910390fd5b80600401544210156105e45760405162461bcd60e51b815260206004820152601960248201527843616d706169676e206973207374696c6c2072756e6e696e6760381b604482015260640161058b565b80600301548160050154101561062b5760405162461bcd60e51b815260206004820152600c60248201526b11dbd85b081b9bdd081b595d60a21b604482015260640161058b565b600681015460ff16156106805760405162461bcd60e51b815260206004820152601760248201527f46756e647320616c72656164792077697468647261776e000000000000000000604482015260640161058b565b60068101805460ff191660011790556005810154604051339180156108fc02916000818181858888f193505050501580156106bf573d6000803e3d6000fd5b50600581015460408051848152336020820152908101919091527ff440aec6b52895984d061d622e6edeba6210f7c3e059be920663140c084560d7906060015b60405180910390a15050565b600081815260036020526040902060048101544210156107695760405162461bcd60e51b815260206004820152601960248201527843616d706169676e206973207374696c6c2072756e6e696e6760381b604482015260640161058b565b80600301548160050154106107af5760405162461bcd60e51b815260206004820152600c60248201526b11dbd85b081dd85cc81b595d60a21b604482015260640161058b565b60008281526004602090815260408083203384529091529020548061080a5760405162461bcd60e51b8152602060048201526011602482015270139bc8191bdb985d1a5bdb88199bdd5b99607a1b604482015260640161058b565b600083815260046020908152604080832033808552925280832083905551909183156108fc02918491818181858888f19350505050158015610850573d6000803e3d6000fd5b50604080518481523360208201529081018290527f7a482fdeb6bc9a1376f597068a214a7a39472bb2eff1b8cad21ba04f49ddca1b9060600160405180910390a1505050565b6000818152600560209081526040918290208054835181840281018401909452808452606093928301828280156108f657602002820191906000526020600020905b81546001600160a01b031681526001909101906020018083116108d8575b50505050509050919050565b6000546001600160a01b031633146109555760405162461bcd60e51b81526020600482015260166024820152752737ba103a34329031b7b73a3930b1ba1037bbb732b960511b604482015260640161058b565b60005b81518110156109b1576002828281518110610975576109756118fc565b6020908102919091018101518254600181018455600093845291909220019061099e9082611961565b50806109a981611a37565b915050610958565b5050565b600081815260036020526040902060048101544210610a0b5760405162461bcd60e51b815260206004820152601260248201527110d85b5c185a59db881a185cc8195b99195960721b604482015260640161058b565b60003411610a5b5760405162461bcd60e51b815260206004820152601f60248201527f446f6e6174696f6e206d7573742062652067726561746572207468616e203000604482015260640161058b565b60008281526004602090815260408083203384529091528120549003610aaa5760008281526005602090815260408220805460018101825590835291200180546001600160a01b031916331790555b34816005016000828254610abe9190611a50565b9091555050600082815260046020908152604080832033845290915281208054349290610aec908490611a50565b90915550506040805183815233602082015234918101919091527f0b5b4c52969ff7329ecf7ee536409fda87812b15a8622bc6e8cdeab3aee14a26906060016106ff565b610b386113bf565b6000828152600360209081526040918290208251610100810190935280546001600160a01b031683526001810180549192840191610b75906118c8565b80601f0160208091040260200160405190810160405280929190818152602001828054610ba1906118c8565b8015610bee5780601f10610bc357610100808354040283529160200191610bee565b820191906000526020600020905b815481529060010190602001808311610bd157829003601f168201915b50505050508152602001600282018054610c07906118c8565b80601f0160208091040260200160405190810160405280929190818152602001828054610c33906118c8565b8015610c805780601f10610c5557610100808354040283529160200191610c80565b820191906000526020600020905b815481529060010190602001808311610c6357829003601f168201915b5050509183525050600382015460208201526004820154604082015260058201546060820152600682015460ff161515608082015260079091015460a09091015292915050565b6060600060015467ffffffffffffffff811115610ce657610ce6611522565b604051908082528060200260200182016040528015610d1f57816020015b610d0c6113bf565b815260200190600190039081610d045790505b50905060005b600154811015610eea576000818152600360209081526040918290208251610100810190935280546001600160a01b031683526001810180549192840191610d6c906118c8565b80601f0160208091040260200160405190810160405280929190818152602001828054610d98906118c8565b8015610de55780601f10610dba57610100808354040283529160200191610de5565b820191906000526020600020905b815481529060010190602001808311610dc857829003601f168201915b50505050508152602001600282018054610dfe906118c8565b80601f0160208091040260200160405190810160405280929190818152602001828054610e2a906118c8565b8015610e775780601f10610e4c57610100808354040283529160200191610e77565b820191906000526020600020905b815481529060010190602001808311610e5a57829003601f168201915b5050509183525050600382015460208201526004820154604082015260058201546060820152600682015460ff161515608082015260079091015460a0909101528251839083908110610ecc57610ecc6118fc565b60200260200101819052508080610ee290611a37565b915050610d25565b50919050565b60008281526004602090815260408083206001600160a01b03851684529091529020545b92915050565b60008311610f6a5760405162461bcd60e51b815260206004820152601b60248201527f476f616c206d7573742062652067726561746572207468616e20300000000000604482015260640161058b565b60008211610fba5760405162461bcd60e51b815260206004820152601f60248201527f4475726174696f6e206d7573742062652067726561746572207468616e203000604482015260640161058b565b6001805460009182610fcb83611a37565b919050559050604051806101000160405280336001600160a01b0316815260200187815260200186815260200185815260200161100785611364565b6110119042611a50565b8152600060208083018290526040808401839052606090930186905284825260038152919020825181546001600160a01b0319166001600160a01b039091161781559082015160018201906110669082611961565b506040820151600282019061107b9082611961565b50606082015160038201556080820151600482015560a0820151600582015560c082015160068201805460ff191691151591909117905560e0909101516007909101557f91b289a829e71d811b8c69e4a24ba2d40d115d8a236e9a724cb3bb2d43cf72238133866110eb87611364565b6110f59042611a50565b604080519485526001600160a01b03909316602085015291830152606082015260800160405180910390a1505050505050565b60025460609082106111725760405162461bcd60e51b8152602060048201526013602482015272125b9d985b1a590810d85d1959dbdc9e481259606a1b604482015260640161058b565b600082815260036020526040902060070154600280549091908110611199576111996118fc565b9060005260206000200180546111ae906118c8565b80601f01602080910402602001604051908101604052809291908181526020018280546111da906118c8565b80156108f65780601f106111fc576101008083540402835291602001916108f6565b820191906000526020600020905b81548152906001019060200180831161120a5750939695505050505050565b6002818154811061123957600080fd5b906000526020600020016000915090508054611254906118c8565b80601f0160208091040260200160405190810160405280929190818152602001828054611280906118c8565b80156112cd5780601f106112a2576101008083540402835291602001916112cd565b820191906000526020600020905b8154815290600101906020018083116112b057829003601f168201915b505050505081565b6000546001600160a01b031633146113285760405162461bcd60e51b81526020600482015260166024820152752737ba103a34329031b7b73a3930b1ba1037bbb732b960511b604482015260640161058b565b600280546001810182556000919091527f405787fa12a823e0f2b7631cc41b3ba8828b3321ca811111fa75cd3aa3bb5ace016109b18282611961565b6000611371826018611a63565b61137c90603c611a63565b610f1490603c611a63565b600560205281600052604060002081815481106113a357600080fd5b6000918252602090912001546001600160a01b03169150829050565b60405180610100016040528060006001600160a01b031681526020016060815260200160608152602001600081526020016000815260200160008152602001600015158152602001600081525090565b60006020828403121561142157600080fd5b5035919050565b6000815180845260005b8181101561144e57602081850181015186830182015201611432565b506000602082860101526020601f19601f83011685010191505092915050565b6001600160a01b0389168152610100602082018190526000906114938382018b611428565b905082810360408401526114a7818a611428565b60608401989098525050608081019490945260a0840192909252151560c083015260e0909101529392505050565b6020808252825182820181905260009190848201906040850190845b818110156115165783516001600160a01b0316835292840192918401916001016114f1565b50909695505050505050565b634e487b7160e01b600052604160045260246000fd5b604051601f8201601f1916810167ffffffffffffffff8111828210171561156157611561611522565b604052919050565b600082601f83011261157a57600080fd5b813567ffffffffffffffff81111561159457611594611522565b6115a7601f8201601f1916602001611538565b8181528460208386010111156115bc57600080fd5b816020850160208301376000918101602001919091529392505050565b600060208083850312156115ec57600080fd5b823567ffffffffffffffff8082111561160457600080fd5b818501915085601f83011261161857600080fd5b81358181111561162a5761162a611522565b8060051b611639858201611538565b918252838101850191858101908984111561165357600080fd5b86860192505b8383101561168f578235858111156116715760008081fd5b61167f8b89838a0101611569565b8352509186019190860190611659565b9998505050505050505050565b600061010060018060a01b03835116845260208301518160208601526116c482860182611428565b915050604083015184820360408601526116de8282611428565b915050606083015160608501526080830151608085015260a083015160a085015260c0830151151560c085015260e083015160e08501528091505092915050565b602081526000611732602083018461169c565b9392505050565b6000602080830181845280855180835260408601915060408160051b870101925083870160005b8281101561178e57603f1988860301845261177c85835161169c565b94509285019290850190600101611760565b5092979650505050505050565b600080604083850312156117ae57600080fd5b8235915060208301356001600160a01b03811681146117cc57600080fd5b809150509250929050565b600080600080600060a086880312156117ef57600080fd5b853567ffffffffffffffff8082111561180757600080fd5b61181389838a01611569565b9650602088013591508082111561182957600080fd5b5061183688828901611569565b959895975050505060408401359360608101359360809091013592509050565b6020815260006117326020830184611428565b60006020828403121561187b57600080fd5b813567ffffffffffffffff81111561189257600080fd5b61189e84828501611569565b949350505050565b600080604083850312156118b957600080fd5b50508035926020909101359150565b600181811c908216806118dc57607f821691505b602082108103610eea57634e487b7160e01b600052602260045260246000fd5b634e487b7160e01b600052603260045260246000fd5b601f82111561195c57600081815260208120601f850160051c810160208610156119395750805b601f850160051c820191505b8181101561195857828155600101611945565b5050505b505050565b815167ffffffffffffffff81111561197b5761197b611522565b61198f8161198984546118c8565b84611912565b602080601f8311600181146119c457600084156119ac5750858301515b600019600386901b1c1916600185901b178555611958565b600085815260208120601f198616915b828110156119f3578886015182559484019460019091019084016119d4565b5085821015611a115787850151600019600388901b60f8161c191681555b5050505050600190811b01905550565b634e487b7160e01b600052601160045260246000fd5b600060018201611a4957611a49611a21565b5060010190565b80820180821115610f1457610f14611a21565b8082028115828204841417610f1457610f14611a2156fea26469706673582212200496603875b5c9e165197471dc68914da49c5be9c76b21020ce693d076540fd964736f6c63430008130033","linkReferences":{}},"methodIdentifiers":{"campaignCount()":"7274e30d","campaignDonors(uint256,uint256)":"f25e1e93","campaigns(uint256)":"141961bc","categories(uint256)":"c6cdbe5e","convertDaysToSeconds(uint256)":"e721da13","createCampaign(string,string,uint256,uint256,uint256)":"b5c89219","createCategory(string)":"dc298682","donateToCampaign(uint256)":"42a4fda8","donations(uint256,address)":"ee1554a3","getAllCampaigns()":"86cdf604","getCampaign(uint256)":"5598f8cc","getCampaignCategory(uint256)":"b69f5b13","getDonorContribution(uint256,address)":"a1be44e0","getDonors(uint256)":"29516511","owner()":"8da5cb5b","refund(uint256)":"278ecde1","setCategories(string[])":"382f05b7","withdrawFunds(uint256)":"155dd5ee"},"id":15}